:100000000C942A000C948E010C94B7010C94E0011E
:100010000C9447000C9447000C9444030C94F20297
:100020000C941B030C94C9020C945B020C943202D6
:100030000C9409020C946D030C9447000C949603E5
:100040000C9447000C9447000C9447000C94470014
:100050000C94470011241FBECFE5D8E0DEBFCDBF12
:1000600010E0A0E6B0E0EEE6F8E002C005900D92E8
:10007000A038B107D9F720E0A0E8B0E001C01D9298
:10008000A83BB207E1F70E9455000C9435040C948C
:10009000000080E00C947B0081E00C947B0082E007
:1000A0000C947B0083E00C947B000E94B000789459
:1000B00022E048E853E169E470E080E00E94EE034A
:1000C00020E048EE53E06CE470E081E00E94EE0333
:1000D00021E040E157E26FE470E082E00E94EE032D
:1000E00022E048E853E162E570E083E00E94EE031D
:1000F0000E94E603FFCF282F277086958695869568
:10010000813081F028F08230B9F08330F9F0089521
:100110003BB381E090E001C0880F2A95EAF783277E
:100120008BBB089538B381E090E001C0880F2A9519
:10013000EAF7832788BB089535B381E090E001C0DA
:10014000880F2A95EAF7832785BB089532B381E0AB
:1001500090E001C0880F2A95EAF7832782BB0895B3
:10016000E0E6F0E040E081E090E05191342F3695F8
:1001700036953695242F2770513009F443C020F06E
:10018000523009F482C0C5C0323001F1333061F120
:10019000313071F05AB3BC0102C0660F771F2A9547
:1001A000E2F79B01352F322B3ABB3BB320953DC084
:1001B00057B3BC0102C0660F771F2A95E2F79B0177
:1001C000352F322B37BB38B320953EC054B3BC011A
:1001D00002C0660F771F2A95E2F79B01352F322B5D
:1001E00034BB35B320953FC051B3BC0102C0660F8C
:1001F000771F2A95E2F79B01352F322B31BB32B3A3
:10020000209541C0323011F1333081F1313079F035
:100210005AB3BC0102C0660F771F2A95E2F79B0113
:100220002095352F32233ABB3BB3232342C057B32B
:10023000BC0102C0660F771F2A95E2F79B0120954B
:10024000352F322337BB38B3232343C054B3BC010B
:1002500002C0660F771F2A95E2F79B012095352F84
:10026000322334BB35B3232325BB53C051B3BC0168
:1002700002C0660F771F2A95E2F79B012095352F64
:10028000322331BB32B3232343C0323021F1333028
:1002900089F1313081F05AB3BC0102C0660F771F7B
:1002A0002A95E2F79B01362F309535233ABB3BB3B5
:1002B000232B2BBB2EC057B3BC0102C0660F771F88
:1002C0002A95E2F79B01362F3095352337BB38B39B
:1002D000232B28BB1EC054B3BC0102C0660F771F7E
:1002E0002A95E2F79B01362F3095352334BB35B381
:1002F000232BBACF51B3BC0102C0660F771F2A95DA
:10030000E2F79B01362F3095352331BB32B3232BD7
:1003100022BB4F5F403209F028CF08951F920F9201
:100320000FB60F9211242F933F934F935F936F93C8
:100330007F938F939F93AF93BF93EF93FF93E0913E
:100340008400F0918500309709F00995FF91EF91B5
:10035000BF91AF919F918F917F916F915F914F91DD
:100360003F912F910F900FBE0F901F9018951F92E5
:100370000F920FB60F9211242F933F934F935F93D9
:100380006F937F938F939F93AF93BF93EF93FF935D
:10039000E0918200F0918300309709F00995FF9178
:1003A000EF91BF91AF919F918F917F916F915F91ED
:1003B0004F913F912F910F900FBE0F901F90189566
:1003C0001F920F920FB60F9211242F933F934F93CA
:1003D0005F936F937F938F939F93AF93BF93EF93AD
:1003E000FF93E0918000F0918100309709F009952A
:1003F000FF91EF91BF91AF919F918F917F916F91FD
:100400005F914F913F912F910F900FBE0F901F90D2
:1004100018951F920F920FB60F9211242F933F93AE
:100420004F935F936F937F938F939F93AF93BF93FC
:10043000EF93FF93E0918600F0918700309709F0E9
:100440000995FF91EF91BF91AF919F918F917F910E
:100450006F915F914F913F912F910F900FBE0F9031
:100460001F9018951F920F920FB60F9211242F9381
:100470003F934F935F936F937F938F939F93AF932C
:10048000BF93EF93FF93E0919200F0919300309728
:1004900009F00995FF91EF91BF91AF919F918F91D5
:1004A0007F916F915F914F913F912F910F900FBE70
:1004B0000F901F9018951F920F920FB60F92112454
:1004C0002F933F934F935F936F937F938F939F935C
:1004D000AF93BF93EF93FF93E0919000F091910061
:1004E000309709F00995FF91EF91BF91AF919F91DE
:1004F0008F917F916F915F914F913F912F910F90CD
:100500000FBE0F901F9018958230D9F050F48823B9
:1005100079F0813071F58FB58E7F8FBD8FB58D7F6E
:1005200021C08330D1F0843021F58FB5816017C0B0
:100530008FB58E7F8FBD8FB58D7F8FBD8EB5877F39
:1005400008C08FB58E7F8FBD8FB58D7F8FBD8EB567
:1005500088608EBD8EB58F7E0BC08FB58E7F8FBDB0
:100560008FB582608FBD8EB588608EBD8EB580617F
:100570008EBD8EB5887F8EBD8EB5682B6EBD0895FD
:1005800089B7806189BF089590938D0080938C0016
:1005900008951F920F920FB60F9211242F933F933D
:1005A0004F935F936F937F938F939F93AF93BF937B
:1005B000EF93FF93E0918E00F0918F00309709F058
:1005C0000995FF91EF91BF91AF919F918F917F918D
:1005D0006F915F914F913F912F910F900FBE0F90B0
:1005E0001F9018951F920F920FB60F9211242F9300
:1005F0003F934F935F936F937F938F939F93AF93AB
:10060000BF93EF93FF93E0918C00F0918D003097B2
:1006100009F00995FF91EF91BF91AF919F918F9153
:100620007F916F915F914F913F912F910F900FBEEE
:100630000F901F9018951F920F920FB60F921124D2
:100640002F933F934F935F936F937F938F939F93DA
:10065000AF93BF93EF93FF93E0918A00F0918B00EB
:10066000309709F00995FF91EF91BF91AF919F915C
:100670008F917F916F915F914F913F912F910F904B
:100680000FBE0F901F9018951F920F920FB60F92EA
:1006900011242F933F934F935F936F937F938F9387
:1006A0009F93AF93BF93EF93FF93E0918800F091F6
:1006B0008900309709F00995FF91EF91BF91AF91B3
:1006C0009F918F917F916F915F914F913F912F916A
:1006D0000F900FBE0F901F9018951F920F920FB69C
:1006E0000F9211242F933F934F935F936F937F93B8
:1006F0008F939F93AF93BF93EF93FF93E0919600F7
:10070000F0919700309709F00995FF91EF91BF9113
:10071000AF919F918F917F916F915F914F913F9199
:100720002F910F900FBE0F901F9018951F920F9250
:100730000FB60F9211242F933F934F935F936F93B4
:100740007F938F939F93AF93BF93EF93FF93E0912A
:100750009400F0919500309709F00995FF91EF9181
:10076000BF91AF919F918F917F916F915F914F91C9
:100770003F912F910F900FBE0F901F901895CF9320
:10078000DF93809198009091990001969093990041
:1007900080939800CAE9D0E08C8181110FC08091CC
:1007A000980090919900688179810E942104892B99
:1007B00029F4EA81FB81309709F00995269680E0BB
:1007C000C83BD80749F7DF91CF9108956FEB73E0ED
:1007D00081E090E00E94020478940895611571050B
:1007E00081F096E0899FF0011124E656FF4F828147
:1007F0009381892B31F45183408373836283148204
:10080000258308950F931F93CF93DF938C01EB0102
:1008100062E082E00E94840228EE33E0029FC00181
:10082000039F900D129F900D112401979BBD8ABDCF
:10083000CE010E94C402DF91CF911F910F910C94C1
:10084000C002AA1BBB1B51E107C0AA1FBB1FA617F2
:10085000B70710F0A61BB70B881F991F5A95A9F769
:0E08600080959095BC01CD010895F894FFCFCE
:10086E00000000000000000000000000000000007A
:10087E000000000000000000000002020000010065
:00000001FF
